S0210000626F6F746C6F616465722D756172742D786D6F64656D5F4E43502E733337C8
S3150800000008100020FD0100081D2300082D24000803
S315080000101D2300081D2300081D2300081D230008B2
S315080000201D2300081D230008F82900081D230008C1
S315080000301D230008402A00081D2300081D23000868
S315080000401D2300081D2300081D2300081D23000882
S315080000501D2300081D2300081D2300081D23000872
S315080000601D2300081D2300081D2300081D23000862
S315080000701D2300081D2300081D2300081D23000852
S315080000801D2300081D2300081D2300081D23000842
S315080000901D2300081D2300081D2300081D23000832
S315080000A01D2300081D2300081D2300081D23000822
S315080000B01D2300081D2300081D2300081D23000812
S315080000C01D2300081D2300081D2300081D23000802
S315080000D01D2300081D2300081D2300081D230008F2
S315080000E01D2300081D2300081D2300081D230008E2
S315080000F01D2300081D2300081D2300081D230008D2
S315080001001D2300081D2300081D2300081D230008C1
S315080001101D2300081D2300081D2300081D230008B1
S315080001201D2300081D2300081D2300081D230008A1
S315080001301D2300081D2300081D2300081D23000891
S315080001401D2300081D2300081D2300081D23000881
S315080001501D2300081D2300081D2300081D23000871
S315080001601D2300081D2300081D2300081D23000861
S3150800017010B5054C237833B9044B13B1044800E095
S3150800018000BF0123237010BD70100020000000007E
S31508000190942B000808B5034B1BB10349034800E03C
S315080001A000BF08BD0000000074100020942B000852
S315080001B0064B0748DA1C121AC11E22F0030299429E
S315080001C088BF0022034902F081BB00BF70100020DF
S315080001D010100020A02B0008064B0748DA1C121A3C
S315080001E0C11E22F00302994288BF0022002102F0B4
S315080001F07ABB00BF481300207010002008B5084BD2
S3150800020083F30A88074B084AC3E9002200F00EF870
S3150800021000F080FCFFF7CCFFFFF7DEFF00F022FCC2
S315080002200800002008100020A5EDF5FE044B054A3D
S315080002309A60D3F8882042F47002C3F88820704781
S3150800024000ED00E0000000080023024A1370024A8D
S3150800025013707047C2100020C310002038B5037809
S315080002600546042B0C4650D008D8012B0AD0032B80
S3150800027050D0182340F6031023700DE0182B49D0F0
S31508000280432BF5E7264B42781978D9B9012A04D0C9
S31508000290152340F60410237038BD1A70AB781A443B
S315080002A0FF2AF5D100228021E81C02F0E5F995F82D
S315080002B08320C0F30F239A4216D0152340F6021066
S315080002C02370E9E7174B1B78934204D1062340F6BF
S315080002D006102370E0E70133DBB29342DED0152324
S315080002E040F605102370D7E795F88430C0B28342EC
S315080002F004D0152340F601102370CDE76A78094B20
S3150800030000201A7006232370C6E7062340F6071056
S315080003100B70C1E7182340F608102370BCE700BF2E
S31508000320C3100020C21000200149024800F03AB864
S31508000330102900088C10002010B592B047221849E1
S31508000340684602F0C3FA02F058F80A22C0F30363BB
S31508000350092B8CBF373330338DF81430C0F3034381
S31508000360B3FBF2F102FB113300F00F0030338DF8C6
S315080003701730B0FBF2F302FB130001F13004303002
S3150800038003F130018DF819108DF81A000122472162
S3150800039068468DF8164000F0A7FD002012B010BD83
S315080003A0202900082DE9F04F0024ADF5277D4FF4EC
S315080003B09472064688465CA821468DF8134002F0DA
S315080003C092FA2146682206A802F08DFA214668228A
S315080003D020A802F088FA3C2700F068FC01244FF0B8
S315080003E0FF35DFF82CA3DFF82C93DFF82CB3062CA7
S315080003F0FDD8DFE814F00B000F00200043005D0075
S315080004005301BF000424F2E70446F0E7FFF794FF20
S315080004100124ECE74FF47A7105A802F07EF840B99A
S315080004209DF81430313BDBB2022B8EBF0446B34A2B
S31508000430D45C3C27DBE701221121B14800F054FDCA
S315080004402C220021304602F04EFA202320AA06A9C3
S315080004505CA800F04DFF0024FF23012105207370DE
S31508000460748000F047FC00F08BFD18B1012120468E
S3150800047000F0FCFDFFF7E8FE0324B8E7432001F08F
S3150800048053FF00214FF47A7000F034FC00F078FD39
S3150800049018B900F055FC0028F8D000F071FD0028C6
S315080004A0B0D1013FA3D1182001F03EFF00249EE7FA
S315080004B0002185220DF1E90002F015FA002140F627
S315080004C0B83000F017FC00F05BFD78B34FF47A7390
S315080004D00093012305AA19460DF1E90000F074FD01
S315080004E09DF8E930012B0DD140F6B83284210092EF
S315080004F00DF1EA0005AA00F067FD059B0546842B69
S3150800050018D1C8B90DF113010DF1E900FFF7A6FEE0
S3150800051040F607139842054614D1B3780BB1F37821
S3150800052013B918238DF8133006241DE000F008FCD3
S315080005300028C8D040F2047515208DF8130001F084
S31508000540F3FE54E780B99DF8E930012B0CD18023DE
S315080005503146CDF800803BAA5CA800F003FF0546AB
S3150800056010B118238DF813309DF81300182808BF0A
S315080005700624E4E70121002000F078FD01210A2085
S3150800058000F0B8FB9DF813300122062B08D140F67F
S3150800059007139D4204D11B215A4800F0A5FC85E7A4
S315080005A01A21584600F0A0FCA5F51063B3F5E06FD4
S315080005B04FF0010222D21121534800F095FC40F673
S315080005C006139D4222DD9DF813309F2B4FEA131028
S315080005D08CBF3730303000F0BFFC9DF8130000F0B8
S315080005E00F0009288CBF3730303000F0B5FC0D20DD
S315080005F000F0B2FC0A2000F0AFFC57E71021434890
S3150800060000F072FC40F606139D420BDCB5F5106F40
S31508000610D9DDA5F60213042B2CD8DFE803F02D2527
S31508000620292F3100A5F58053013B092BCBD8A5F519
S315080006308053013B092BC6D801A252F823F000BF0C
S3150800064095060008C7050008C705000899060008AA
S315080006508906000891060008950600088D06000818
S31508000660850600089506000821238DF81330AAE7A9
S315080006702223FAE72323F8E72423F6E72523F4E7DA
S315080006802723F2E74123F0E74323EEE74423ECE789
S315080006904523EAE74F23E8E75023E6E7B3783BB379
S315080006A0F3782BB3337813F0040409D0B06A01F059
S315080006B0A9FE00283FF4A8AE484600F057F9F5E62B
S315080006C09B0710D57368039301F097FE039B83423B
S315080006D003D94846716A00F0FFF8012213215046F3
S315080006E000F002FC83E640F2012000F07FFAF4E70E
S315080006F040F2032000F07AFAD8E600BF672900081E
S31508000700C2290008A7290008D32900087D2900085E
S315080007106A290008008000088D2900081FB500F125
S31508000720006303F500430393104B144698421BD805
S31508000730039A0F4B9A4217D2039A9B1AA34213D3D2
S3150800074058B94FF000639B6A0A4A5869904204D91F
S315080007501869019100F074FA01992246039804B0C9
S31508000760BDE8104001F0FABD04B010BDFF7FFFF7E9
S3150800077000E01708008000087FB56FF0006200F1FE
S315080007807841914203461AD26D460E4A02F1100686
S315080007902C4610685168083203C4B2422546F7D180
S315080007A05A1E0DF10F010F3311F8010912F8014F06
S315080007B0844204D19A42F7D1012004B070BD0020CA
S315080007C0FBE700BFE42900082DE9F0410368044669
S315080007D003F16043B3F5802FA0B034D84FF000631F
S315080007E09B6A42681E6996422DD8394B9A422AD886
S315080007F0456B06F14002AA4268D89D4266D828464B
S31508000800FFF7BAFF002861D0284601F0DAFD80B16B
S315080008106B6973B1022B0FD1AB69C4F1040119449A
S315080008204FF0FF32204601F0D5F82A4BC31A58423A
S31508000830584120B0BDE8F08140F20463284604938D
S31508000840FFF79AFF08B90020F3E7284601F0B9FD3B
S315080008500028F8D04FF00067D7F834804046FFF7F5
S315080008608BFF0028EFD0503EB045ECD8284605A9A6
S3150800087001F0AEFD0028E6D0BA6A059B12699A42D5
S31508000880E1D89C42DFD8124A9342DCD806A801F088
S3150800089063F9059A2146121B06A801F00BFF06A864
S315080008A001F00AFF059C01F067F9039001F082F94F
S315080008B021460090039B04F1200206A801F0CCF81B
S315080008C004900498B0FA80F04009B2E70120B0E736
S315080008D000001808E320BBDE70B54FF0FF3290B079
S315080008E005460C4601F076F81C4B984232D14FF477
S315080008F080621B4B00219A6601A81C2201F0F3FFB7
S31508000900184B29466846043C009301F02AFF214605
S31508000910684601F026FF684601F02CFF01F015FD38
S315080009200646B8B940F2022000F054F91C223146B6
S3150800093009A801F0D8FF0C4B294608A8089301F02E
S3150800094010FF08A8214601F00CFF08A801F012FFC5
S3150800095001F0FBFC002010B070BD00BFE320BBDE39
S315080009600090004001000543010006434FF48062F1
S3150800097030B50446154B91B09A6600211C2201A891
S3150800098001F0B1FF124B21466846009301F0E9FEDB
S31508000990684601F0EFFE01F0D8FC054698B940F22A
S315080009A0022000F017F91C22294609A801F09BFF2E
S315080009B0084B08A82146089301F0D3FE08A801F0C1
S315080009C0D9FE01F0C2FC002011B030BD00900040F5
S315080009D000000243000003434FF4806210B50F4B3A
S315080009E08CB004469A6600211C2205A801F07BFFFC
S315080009F00B4B01940493012302930A4B01A904A803
S31508000A00039301F0A4FE04A801F0B4FE01F09DFCD6
S31508000A10B0FA80F040090CB010BD00BF009000404D
S31508000A2000000843040000200048704700800008C2
S31508000A3040B139B100230B60034B03600B6843F4E4
S31508000A4000230B60704700BF0C120008044B1846C1
S31508000A50016881F3088881F3098840688746FEE7BC
S31508000A600060000813B501A801F012FB9DF80530D7
S31508000A70012B14D19DF804308BB94FF48012224B08
S31508000A802249586E03F580535A664B6BC00223F011
S31508000A90E05343F040634B635CBF1D4B5A664FF00F
S31508000AA04023D3F88420110606D44FF400621A674F
S31508000AB0D3F88420D206FBD401F0B4FC00F074F815
S31508000AC001F02DFC01F02DFC18B14FF4017000F077
S31508000AD08DF8FFF729FC044601F025FC1CB140F20D
S31508000AE003739C4203D140F2012000F07FF8A4F280
S31508000AF00574012C94BF40F203204FF4017000F0F6
S31508000B0075F8002002B010BD008000400040004A81
S31508000B1000A0004013B501244FF040238DF806408D
S31508000B208DF80740D3F894305B060BD500F072F8C1
S31508000B30A0F2022080B2072804D804FA00F010F0C8
S31508000B40C90F02D100F0FAFA20B100238DF8063059
S31508000B508DF80730124B5B68013308D14FF40270E9
S31508000B6000F038F800238DF806308DF807309DF828
S31508000B7007305BB10A48FFF727FE8DF806009DF897
S31508000B8006301BB94FF4027000F024F89DF80630C1
S31508000B9023B10348034B9860FFF758FF02B010BD16
S31508000BA00060000800ED00E04CF23C32014B5A8030
S31508000BB0704700BF000000204AF6C030044B5B882F
S31508000BC023F00F039BB21B1A58425841704700BFC7
S31508000BD000000020044A08B51080FFF7EDFF10B9A1
S31508000BE04FF20F03538008BD0000002008B5FFF739
S31508000BF0F1FFBFF34F8F0549054BCA6802F4E0625F
S31508000C001343CB60BFF34F8F00BFFDE700ED00E055
S31508000C100400FA054FF20F01084B5A888A4201D19F
S31508000C20188870473AB91B8840F20220012B18BF72
S31508000C304FF4007070474FF40070704700000020B2
S31508000C404FF4803208B5044B9A6601F063F9B0FA9E
S31508000C5080F0400908BD00BF00900040072BF8B59A
S31508000C6006460F4614461D4601D90020F8BD012147
S31508000C70202001F0C9F80121212001F0C5F88CB126
S31508000C8044EA06039B07F0D14FF48032064B3146FF
S31508000C909A66284623463A4601F064F9B0FA80F087
S31508000CA04009E3E70120E1E7009000401FB5102462
S31508000CB00D4B5C6600F0F8F94FF47A23B0FBF3F0BD
S31508000CC00A4B224618600021684601F00CFE0123F3
S31508000CD08DF8003040F2FF3369460548ADF802301A
S31508000CE001F06DFD04B010BD00900040B810002062
S31508000CF00080044030B50D4D0D4A2D68536A15FB2A
S31508000D0000F010FA83F09CB280B2A0422CBF0024F7
S31508000D100124084B1880084B1C7011B1536A834292
S31508000D20FCD1012305494B61936130BDB810002001
S31508000D3000800440C0100020C410002000A0044019
S31508000D40094B0A4A5869127800F001000AB108B935
S31508000D50704738B9586A064B1B88984234BF00203A
S31508000D60012070470120704700800440C41000200D
S31508000D70C01000202DE9F047DFF83891464BD9F826
S31508000D800020464F02F13C01996002F124037B6280
S31508000D907B604FF08063DFF820A101260AF58058B2
S31508000DA0C8F864304FF40073C8F8643002F580530D
S31508000DB05E6040F6AA630024536141F20503384D8C
S31508000DC0384802F500519460D465D3601461D46143
S31508000DD0D4648864C5F82047C5F83847C5F830474D
S31508000DE0C5F82847C5F82C47D3609368936000F088
S31508000DF05BF9DAF870204FF4E113C2F3802232442B
S31508000E00B0FBF2F202F5E1425201B2FBF3F2264BD5
S31508000E10203A03EAC202D9F800300521DA612046F1
S31508000E203346042201F00CF83346324606212046A2
S31508000E3001F006F81423C5F820374FF4A023C5F8A7
S31508000E4038374FF4C0230522C5F83037D9F80030B3
S31508000E504FF0F0515A6103234FF48020134AC8F823
S31508000E606430566091601249546294631464546500
S31508000E70486002301466D46517678860A1F500518A
S31508000E80C2F89040C2F88C404B630223966402F580
S31508000E9080521361BDE8F087501000201010002022
S31508000EA000C00340FFFF0100F8FF7F000000044078
S31508000EB0004004406010002000800040084B586B3A
S31508000EC010F0020006D002229A6203F500530120B0
S31508000ED05A637047DB6A9B07FBD40222014BF6E78D
S31508000EE000000440002004407F2938B50446154612
S31508000EF024D8FFF7E3FF20B32046134B621890422D
S31508000F000DD1124B01391A8861F30E121A80104A54
S31508000F10C2F8A0300223936435B9002038BD10F812
S31508000F20014B03F8014BEAE7FFF7C8FF0028FBD09F
S31508000F30084B1A6893699B06FCD5EEE741F2031045
S31508000F40ECE741F20620E9E7C51200205010002020
S31508000F500000044060100020014608B5FFF7AEFF08
S31508000F600028FBD0054B1B689A695006FCD5D96347
S31508000F709A699206FCD5002008BD00BF60100020C3
S31508000F800E4BD86E40F2011398420FD040F202235E
S31508000F9098420DD00A4BC01A0A4B1B6883420AD0E6
S31508000FA02ABFC3F50073C01AC01870470020F3E7BC
S31508000FB04FF48070F0E70020704700BF000004403F
S31508000FC0C5100020BC1000202DE9F843089F0446F0
S31508000FD00D461646F3B9FFF7D3FFA84228BF2846A1
S31508000FE000214FF001084FF002091D4ADFF878E0AA
S31508000FF013681C4F04EB000C64451DD101B1136046
S3150800100006B1306041F20423A84234BF18460020D6
S31508001010BDE8F8832FB1FFF749FE00213846FFF7F0
S3150800102069FEFFF7ADFFA842D5D2002FF9D0FFF72A
S3150800103087FE0028F5D0CEE71EF803100133B3F576
S31508001040007F04F8011B04D10023C7F81090012182
S31508001050D2E7B3F5807F08BFC7F81080F7E700BF6F
S31508001060BC10002000100440C510002010B1022258
S31508001070094B9A6271B101220020074B07499A620F
S315080010804A6307491967074908609A64022203F503
S3150800109080531A6100207047000004400020044075
S315080010A010100020BC10002030B51C4B87B001AAD8
S315080010B003F11005144618685968083303C4AB428F
S315080010C02246F7D11B782370154B1B6F03F00703D5
S315080010D0032B1FD04FF48022124B5A66124A93688C
S315080010E0C3F30443102B17D818336B4413F8143C76
S315080010F00E480F4943438B4203D19268C2F30162FB
S31508001100D340074A106FC0F303300130B3FBF0F049
S3150800111007B030BD074BF4E7074BF2E7902A000803
S3150800112000800040009000400000014040420F004F
S3150800113000093D0000F04902C0EA21014FF0806233
S31508001140164B13B55A66002101230422022000F02B
S3150800115077FE00230093009B632B19DD02220123EF
S315080011600021104600F06CFE00230193019BB3F5A5
S31508001170FA7F10DB00220A4B1146D3F8A44002205E
S31508001180012300F05DFEE04300F0010002B010BD4F
S31508001190009B0133DEE7019B0133E6E70090004040
S315080011A000C0034030B500220C24064B04FB02F1B4
S315080011B0CD58854201D1581830BD01320C2AF5D1D7
S315080011C00020F9E7A42A00087FB50023CDE90033FB
S315080011D0082315460DEB0302044601F0C9F941F24E
S315080011E003039842064626D194F8433063B1082291
S315080011F0E06C0DEB020101F05DFA08230DEB03022A
S315080012001146A06C01F045FA039A029B6A6094F8AD
S3150800121043202B605AB9094A934208D0084A934298
S3150800122005D00822E06C0DEB020101F043FA6B6869
S31508001230236500236365304604B070BDF70A0AF7D4
S31508001240FC0404FC2DE9F743044658680E46174685
S315080012509846002841D08B0742D14FF000639B6A1D
S31508001260206E1B6902EB000C1D1D65451CD81C333E
S31508001270984219D28542294638BF01469C4594BFF3
S31508001280C1EB0C02C1EB0302081AC5F1680506EBAF
S315080012900009681820444946019201F017FBFF210E
S315080012A04846019A01F01FFB226E0F4B9A420AD854
S315080012B00E49B818884206D39B1AF258C4F88020FB
S315080012C04FF0FF32F2503A46D8E90035206E3146E3
S315080012D0A8470020226E3A44226603B0BDE8F08390
S315080012E041F20200F9E700BF048000080880000800
S315080012F02DE9F04100254FF0FF370446884616468B
S3150800130003F0200380F842301822FF21C0E918555F
S31508001310A0F8405080F84350A0F8445080F8465052
S31508001320C0F88870683001F0DEFA88222946C4E9D8
S315080013301286C4F88070C4F8847004F1900001F035
S31508001340D2FA074BC4F82071C4E9463584F824510B
S3150800135016B1304600F000FC0020BDE8F08100BF61
S31508001360000101012DE9F04FA5B09846CDE91123FA
S31508001370002304460E462E9D1393139A424501D325
S315080013800020D1E094F84630132BF7D8DFE813F0A5
S315080013906700B400AE00520039002D00C4013900C0
S315080013A0BC01390073013900BC01AB021B031400F0
S315080013B012015102510219034FF00009636D0F2BF8
S315080013C000F298800127102314AA2046CDF804902D
S315080013D0009711A901F0CCF841F203030890089A86
S315080013E09A4200F0D980089B45E04FF00109D4E9FC
S315080013F01432934200F2E88084F8469041F20303DF
S3150800140039E04FF00109D4E91417B94272D9C91B5A
S31508001410DDE91272BF1A94F840200329174440F2F6
S315080014208381032F00F28381204611A901F07FF8FA
S31508001430002320E00127636D072BDFD8082314AAB1
S315080014402046CDE9007711A901F092F841F203038D
S315080014500B900B9A9A4200F023810B9B0BE014AA7F
S31508001460204611A9FFF7B0FE41F203020590059B3D
S31508001470934208D0059B049341F20303049A9A42C7
S315080014803FF47BAF4FE0159A1499226500226265F6
S31508001490A34A914240F01181022284F84620EAE7E5
S315080014A0012314AA009320460823019711A901F0E5
S315080014B05FF841F203030690069A9A4201D0069B0A
S315080014C0D9E7149B03F07F43B3F1407F05D013237C
S315080014D084F8463041F20903CDE7159BD90706D5AE
S315080014E094F8423043F0010384F842300027636DD4
S315080014F0072BD5D901230CE1204614AA11A9FFF719
S3150800150063FE41F203030790079F9F420FD0079F90
S3150800151041F203030497049A9A423FF42EAF049BC0
S315080015200BB10023F370049825B0BDE8F08F14982A
S31508001530FFF738FE28B9132341F2080784F8463026
S31508001540E6E7437994F824219A4205D9132341F210
S315080015500E0784F84630DBE7026872498A4205D0EE
S315080015600289D20748BF013384F8243194F84230FF
S31508001570D9070DD5028994F84330920706D53BB1B1
S31508001580132341F2010784F84630C1E7002BF7D050
S31508001590037984F84630BBE7D4F848A000F028FB66
S315080015A080230221CDE9000315AA3B46504600F0E8
S315080015B029FA03E7226D0123A265002284F8433045
S315080015C0E26584F84630D8E614AA2046CDE90099A3
S315080015D011A900F0CDFF41F203030990099A9A4236
S315080015E001D0099B47E714AF06F108030DF1680C13
S315080015F03A4603CA624518605960174603F108035C
S31508001600F6D110681860337843F001033370EEE6BC
S31508001610337843F004033370179BB36273785F071C
S3150800162026D5EB238DF8503017238DF85130A62395
S315080016308DF852305E2300208DF85330236D606696
S31508001640C4F8843094F8453043F0020384F84530F2
S31508001650EF686FB104222B6814A9B8470822606E98
S315080016602B68EF6816A91044B847636E1033636693
S315080016700B2384F84630636D072B3FF6BFAE012374
S3150800168016AACDE900332046082311A900F070FFF9
S3150800169041F203030A900A9A9A42B9D00A9BEAE6EB
S315080016A0337843F002033370149B7360236D083B51
S315080016B07362159BB3F1006F05D0132384F8463087
S315080016C041F20103D7E6042384F8463094F84530FE
S315080016D043F0010384F8453000236366ABE6042330
S315080016E014AA2046CDE9007711A900F041FF41F27E
S315080016F003030C900C9A9A4201D00C9BBBE6236D0F
S31508001700042B02D9149B23660127636D032BE6D9A4
S31508001710092384F8463071E600236366072350E7F9
S31508001720EB17A603F90707F98F42FFF47DAE4029A8
S3150800173028BF40218F4228BF0F46032F88BF27F0B6
S3150800174003073B4614AA2046CDE9009911A900F0E3
S315080017500FFF41F203030D900D9A9A4201D00D9B9B
S3150800176089E694F846A0BAF1070F04D1D5F808B06F
S31508001770BBF1000F1BD1042FC7F1040B88BF4FF034
S31508001780000B14AB5A46FF21D81901F0ACF8BAF190
S31508001790090FBB4414D12B465A46204614A9FFF715
S315080017A051FD0D900D9B002B3FF42DAED7E73A4621
S315080017B02B68606E14A9D847626E3A44626622E6C0
S315080017C0BAF1040F21D1737898077FF51CAEEB6840
S315080017D0002B3FF418AE626E042A0BD80BEB0203FB
S315080017E0062B07D915AB9B1A1A68C4F884204FF044
S315080017F0FF321A605A462B68606EEF6814A9B8471C
S31508001800626E0BEB02076766FDE5BAF10B0F7FF414
S31508001810FAAD737859077FF5F6ADD5F80CA0BAF18D
S31508001820000F3FF4F0AD5A462B68606E14A9D047F6
S31508001830E6E74FF000618A6A496B1269503A9142AD
S315080018403FF63EAF112B0FD194F81831002B7FF4D9
S3150800185051AE41F206030E930E9A9A4202D1132311
S3150800186084F846300E9B06E694F84430002B7FF445
S3150800187041AECDE9003314AA4023204611A900F051
S3150800188077FE41F203030E900E9A9A42EAD1E06C73
S3150800189000F012FF94F81831A3B104F1B403E06C18
S315080018A000931CAA04F1940314A900F0D5F80E902D
S315080018B00E9B9BB10023F370132384F8463041F244
S315080018C00603D8E5E76C00F057F9039000F072F9C3
S315080018D0039B00901CAA384614A9E6E70123F37077
S315080018E084F8443006E6002314AACDE900332046DE
S315080018F0042311A900F03CFE41F203030F900F9A4E
S315080019009A4202D00F9B04930DE6D4F888202F4BF9
S315080019109A4205D0132384F8463041F20503F2E7CC
S315080019200123F37094F84530DA0707D5EF682FB12D
S3150800193004222B68104604F18401B84794F8453010
S315080019409B0707D5EF682FB104222B68104604F1D0
S315080019508401B847236E6BB36F685FB34FF0FF33EC
S3150800196004F18001042210A81093039100F09EFF51
S3150800197020B104222B6803991548B84704F1680971
S315080019800422494610A800F091FF98B14FF0006371
S315080019909B6A1422D3F8108004F16C0108F1080040
S315080019A0D5E90037B847D5E900370422494608EB98
S315080019B00200B8470123B3700E2384F8463000238B
S315080019C0A1E70023F37041F20700ADE5E320BBDE93
S315080019D00480000830B50824094B00255C660124FC
S315080019E003F5FE235C6001449D601A61DC60884251
S315080019F001D1586A30BD10F8012B1A62F7E700BF0B
S31508001A0000900040F7B516464FF480621D46114B0C
S31508001A1004469A6620300F46019000F028FFDDE95B
S31508001A200812019800F027FF002384F858706364B1
S31508001A303368C4F859307368C4F85D30B368C4F8BD
S31508001A4061302B0C6DBA84F86530A4F8665003B083
S31508001A50F0BD00BF009000402DE9F04315464FF455
S31508001A6080621C46364B99B0DDF880900E460746D4
S31508001A709A66002861D000295FD0002D5DD0002C21
S31508001A8058D0304B304AB9F1000F14BF98469046EB
S31508001A901C22002111A800F026FF2C4B414610A855
S31508001AA0109300F05EFE202110A800F05AFE0122D5
S31508001AB0274B019402920393CDF810900592069352
S31508001AC054B1B9F1000F07D001A910A800F035FEEE
S31508001AD004A910A800F031FE079701271C4C07A996
S31508001AE010A80897099400F028FE0AA910A80A96D3
S31508001AF00B970C940D950E970F9400F01EFE0DA9EA
S31508001B0010A800F01AFE10A800F034FE114B00933E
S31508001B104FF098435A6CD202FCD55B6D40F20460D4
S31508001B2003F470230093009B002B08BF002019B014
S31508001B30BDE8F083DFF81080AAE740F20160F6E717
S31508001B40009000401F2400801F24FC84000001062A
S31508001B5020000020785634124FF4806210B50446EF
S31508001B60044B9A6600F0ABFD2046BDE81040002104
S31508001B7000F0A9BD009000404FF4806200B50B4B01
S31508001B8091B09A666946002340224FF4807000F0AF
S31508001B9059FAB0F5A02F07D0B0F5302F044818BF72
S31508001BA0002011B05DF804FB0148FAE700900040F8
S31508001BB04CE317084FF4806200B50B4B91B09A6658
S31508001BC06946002340224FF4807000F03BFAB0F5D6
S31508001BD0A02F07D0B0F5302F044818BF002011B049
S31508001BE05DF804FB0148FAE7009000406CE317082B
S31508001BF00048704786E217082DE9F34799460A9B7D
S31508001C000C46196805463F29164642D85A68002ADE
S31508001C1041D0224A002E14BFB046904601F03F0735
S31508001C20091928BF5A68196024BF01325A60AFB132
S31508001C30C7F1400AA24521D82946524609EB0700B2
S31508001C4000F044FE0123414600934A4633460020ED
S31508001C5000F086F8B046403C55443C443F2C0CD92D
S31508001C60A3092A46009341463346002000F078F837
S31508001C7024F03F031D4404F03F0400272CB12246FC
S31508001C80294609EB070000F021FE002002B0BDE856
S31508001C90F0879046C2E7DFF80480BFE7342B0008D8
S31508001CA030B40546084611461A46DDE9023425B918
S31508001CB031B1029430BCFFF79FBF024830BC704771
S31508001CC00846FBE780AFFFFF2DE9F0411746146889
S31508001CD086B01E46E3008DF80F30630952688DF80A
S31508001CE00E30630B8DF80D30630D8DF80C30D30074
S31508001CF003EB54738DF80B3004F03F045309372C6B
S31508001D008DF80A304FEA52334FEA525205468DF89B
S31508001D100820884694BFC4F13802C4F17802CDE998
S31508001D2000178DF809300D4903460020FFF7B8FF64
S31508001D30082143462A4600970DEB0100FFF75CFF92
S31508001D40284605F1200350F8042B984246F8042B40
S31508001D50F9D1002006B0BDE8F08100BF542B000879
S31508001D60F0B517464FF480621D46254B93B00E46D4
S31508001D709A660446202200210AA800F0B4FD012034
S31508001D804FF000520197029003920496059006922E
S31508001D90079508900992002C2FD1189C194BA4017D
S31508001DA021460AA80A9300F0DCFC03990AA80C430A
S31508001DB00394069B04A943F020030693099B43F06A
S31508001DC02003099300F0B9FC01A90AA800F0B5FCA4
S31508001DD007A90AA800F0BBFC0AA800F0CBFC4FF044
S31508001DE098435A6CD202FCD55B6D13F4702F0CBF66
S31508001DF000206FF06F0013B0F0BD6FF07100FAE7C6
S31508001E000090004000040103430905D0012B0DD0C2
S31508001E10022B094B18BF002300F01F0041B103F540
S31508001E208053012202FA00F018607047034BF3E76B
S31508001E3003F50053F5E700BF688000406480004062
S31508001E402DE9F04105460F461E4690464AB1012344
S31508001E503022194C8B4002FB00443EB304F58254F1
S31508001E6023600F21072F05EB450388BFA7F1080458
S31508001E704FEA0313114895BFBC00A40004330C3382
S31508001E8008FA04F2A140184400F03DFCB8F1000F2E
S31508001E900AD101213020084A01FA07F700FB05227A
S31508001EA03EB102F582521760BDE8F08104F501548F
S31508001EB0D6E702F50152F6E700C0034030C00340FA
S31508001EC0F0B5114A114C124E00F00105E3695F079F
S31508001ED013D40DB9334213D103EA00078F4207D151
S31508001EE00B4A1A40002A14BF6FF001000020F0BD0B
S31508001EF0013AEBD16FF00200F9E74FF0FF30F6E751
S31508001F006FF00100F3E700BF8096980000000340D9
S31508001F10020001004FF4803238B50E4B0E4C9A661B
S31508001F20E56941F6713315400122E3630B4B002145
S31508001F30DA600223606121202361FFF7C1FF10B92F
S31508001F402120FFF7BDFF0122054BDA600DB1002302
S31508001F50E36338BD009000400000034000100340D2
S31508001F60002003402DE9F04F06464FF430250120A6
S31508001F70B400DFF8C0C004F1402404F58024CCF88E
S31508001F8004006560302500244FF48037DFF8A8E0A8
S31508001F90DFF8A89005FB06E5EC652C662C67234C54
S31508001FA0DFF89CA0A76641F6713704F51C34D4F80F
S31508001FB01C80E763E76800FA06F60743E7604BB953
S31508001FC0E26818F4803F22F00102E26000D0E36381
S31508001FD0184628E001F5005000EA0900401A984220
S31508001FE028BF18466161D4F81CB087081BF0040F97
S31508001FF017D1013F3F0147F060576F66AA66C5F8DB
S315080020006CA0CCF82460DEF834703E42FBD0084F52
S3150800201001447E630427CCF82860024427611B1A12
S31508002020CDE74FF0FF30BDE8F08F00BF00900040CD
S3150800203000200440001004400000044000E0FFFFB8
S3150800204018000340F0B507460F4D10488DB0002B19
S3150800205008BF05460E46144600211C2205A800F0B6
S3150800206042FC012304A801A93D4344F0005401960B
S3150800207004950293039400F06AFB00F07BFB00F0E2
S3150800208053FB0DB0F0BD00BF01000AFF010008FFB9
S315080020904FF48032064B5A6603F5E6239B69C3F371
S315080020A08512827003F03F021B0B42700370704763
S315080020B0009000404FF48062014B00209A667047FA
S315080020C0009000404FF48062014B00209A667047EA
S315080020D000A000402DE9F04104681E4624F04003A4
S315080020E0802B05468846174692B002D0B4F5807F05
S315080020F043D11C2200210BA800F0F5FB224A234BF2
S315080021000121B8F1010F18BF13460A932B1D01933D
S31508002110E4081F4B44F0005402910AA8039404975C
S31508002120059106930796089101A9099300F005FB06
S3150800213004A90AA800F001FB07A90AA800F007FBF2
S3150800214029680AA8C90800F00CFB10210AA800F0A3
S3150800215008FBFFF7AFFF98B90AA800F00BFB4FF092
S3150800216098435A6CD202FCD55C6DFFF7ABFF04F4BA
S315080021707024204612B0BDE8F0816FF07100F9E7CF
S315080021804FF0FF30F6E700BF00010104000100042C
S31508002190100000202DE9F04F9BB007468946984667
S315080021A01646DDF894B072B115683B6823F0400214
S315080021B0802A03D0B3F5807F40F0A6800BEB090395
S315080021C0002400930DE01546EFE795B1249A1BF815
S315080021D00430525D01355340269A05F00F05135514
S315080021E001344C45F1D3002E00F091800020356073
S315080021F067E0A9EB040ABAF10F0F57D91C22294642
S3150800220013A800F070FB434B3A6812933B1D0393E7
S315080022100123D20842F00052049305923E4A2699B9
S31508002220CDF818802AF00F0A07930892CDF8248073
S315080022300A930B920BEB04020C9221444AF00052CB
S315080022400D9312A80E920F9103A91093119200F004
S3150800225074FA06A912A800F070FA0CA912A800F0E0
S315080022606CFA0FA912A800F072FA09A912A800F0D0
S315080022706EFA396812A8C90800F073FA514612A80E
S3150800228000F06FFAFFF716FFC8B912A800F072FA45
S315080022904FF098435A6CD202FCD55B6D544403F454
S315080022A070230193FFF70EFF019B5BBB269B0BEB8D
S315080022B0040A1C44009B9A4506D14C4691E74FF008
S315080022C0FF301BB0BDE8F08F8DB942460121384674
S315080022D0249BFFF7FFFE0028F3D108F1100212F83D
S315080022E0013D0133DBB213700BB99045F7D1249A3F
S315080022F01AF8013B525D0135534004F8013B05F0DD
S315080023000F05D7E71846DCE76FF01F00D9E7304618
S31508002310D7E700BF0303000410000020FEE700F023
S3150800232012B8FEF709B8704710B50446FEF714FE52
S31508002330182C07D12046FEF70FFE2046BDE81040B0
S31508002340FEF70ABE10BDFEF715BD4FF098435A6C4E
S31508002350D202FCD5586D00F470207047C0F30C0308
S315080023602DE9F04105460F4616460BB9FEF768FCFF
S3150800237005F5005424F4FF5424F01F0405EB060861
S31508002380A04507D8324639462846BDE8F04102231B
S31508002390FEF764BC2046FEF753FC04F50054EFE74D
S315080023A070B44FF00065AD6A03462E69864206D8BA
S315080023B06C6913449C4202D370BCFFF7CFBF70BC54
S315080023C07047036913F0FE0F0CBF01200020704709
S315080023D038B504460D46FEF7CFF948B16369012BB7
S315080023E009D12046FFF7EDFF08B1A3692B6038BD78
S315080023F001202C60FBE70020F9E74FF000639B6A99
S31508002400986870474FF0FF3313B5044601A8019347
S31508002410FEF7E2FA20B1019BA3422CBF002001205F
S3150800242002B010BD00207047002070474FF40170BD
S31508002430FEF7DCBBB1F50D7F10B504460FD34FF49C
S315080024400D72002100F04FFA04F5DE7204F5AA7148
S3150800245004F12C000023BDE81040FEF749BF40F206
S31508002460052010BD13B50446009101462C30FEF731
S3150800247079FFC4F8300218B141F20703984209D12E
S31508002480A3784BB140F2032040F20223E278002AF7
S3150800249008BF184602B010BD40F20120FAE72DE940
S315080024A0F04387B00DF1080904460E461746002189
S315080024B0102248461D46DDF8388000F014FA00213F
S315080024C01C22C8F80010284600F00DFA32463B4692
S315080024D02146CDF8009004F12C00FEF743FF23783F
S315080024E09A0744BF6268C8F80020DB0709D504F1DB
S315080024F0080304F1240253F8041B934245F8041B0D
S31508002500F9D1237840F20640002B18BF002007B007
S31508002510BDE8F0834FF40D707047012307B500221C
S3150800252000911946FEF750FD03B05DF804FB70B53F
S31508002530D1E90152AA4205D290F840302B449B1AA1
S31508002540402B10D9002012E00A6890F84040D65C6B
S3150800255090F841200133224402F03F0201348654A8
S315080025608B6080F840408B689D42EDD8012070BD95
S315080025702DE9F8431D461746D1E901329B1A90F812
S315080025804020044613449D420E469DF820909DF82F
S31508002590248056D9FFF7CBFF00285CD1132341F2DC
S315080025A0020084F84630BDE8F88394F84120A25C1E
S315080025B0FA5494F841200133013202F03F0284F8BC
S315080025C0412094F84020013A84F8402094F84020AD
S315080025D00AB19D42E9D1D6E90121914201D29D4233
S315080025E031D89D42DAD129463846D4F88820FFF7F3
S315080025F0F1F9C4F88800B9F1000F04D02A46394623
S31508002600E06C00F057F8B8F1000F08D094F84330A2
S315080026108BB12B463A463946A06C00F03AF894F846
S31508002620433043B1E36DA26D2B449342E36524BF67
S31508002630002384F84330636D41F203002B4463653D
S31508002640B1E70023C2E73268525CFA54B268013334
S315080026500132B260BFE70020A5E749BA89B248400F
S31508002660C0F30313584003B283EA0033580100F459
S31508002670FF509BB25840704738B504464518104677
S31508002680AC4200D138BD014614F8010BFFF7E5FF4F
S31508002690F6E71FB50C46194600F14803CDE9014295
S315080026A0009300F1440200F158032030FFF772FD51
S315080026B004B010BD00F00CB8014600F016B8682248
S315080026C0002100F010B90023C0E90033184670470E
S315080026D007B500F128030190009300F108030020D4
S315080026E0FFF7DEFA03B05DF804FB02460B4600F17D
S315080026F028010830FFF7E8BAEFF3108072B6704782
S3150800270000B962B6704770B5054614460E46FFF71F
S31508002710F3FF296881EA040202EA06044C402C60A9
S31508002720BDE87040FFF7ECBF4FF098435A6CD202F1
S31508002730FCD5586D00F470207047436813B94160A2
S3150800274070475B685A68012AFBD1596070478368ED
S3150800275013B9816070475B685A68012AFBD15960D2
S315080027607047C369032B9FBF00EB83020133D16017
S31508002770C3617047C369042B15D84FF09842116C92
S31508002780C902FCD504339B0013650168103B116030
S3150800279041680C30116050F8041C034411604FF076
S315080027A09842984200D1704750F8041B1160F8E728
S315080027B0036BDA0702D503695B06F9D4704738B5A7
S315080027C0FFF7F6FF0122044600F500531A63226B51
S315080027D012F00202FBD10B7948881B0243EA8043B8
S315080027E0487A03434878002814BF40200020034352
S315080027F0887A002814BF802000200343C87A00285E
S3150800280014BF202000200343087B002814BF102093
S3150800281000200343487B002814BF082000200343F8
S31508002820887B002814BF4FF4006000200343887992
S31508002830002814BF4FF48030002003430120636052
S3150800284004F580531863087808B90223E360002367
S315080028506362CD790B7A497943EA8503002918BF63
S3150800286010221A43A26008B10123E36038BD24226E
S31508002870002100F038B870B515460E46242200210E
S31508002880044600F030F825F04003802B02D0B5F559
S31508002890807F08D12046314640F8045BEA0800F0FC
S315080028A015F8002070BD6FF01F00FBE701390244E0
S315080028B010B5904201D1002005E0037811F8014FC8
S315080028C0A34201D0181B10BD0130F2E70A44431E8B
S315080028D0914200D1704710B511F8014B914203F8A7
S315080028E0014FF9D110BD02440346934200D1704707
S315080028F003F8011BF9E70000F8B500BFF8BC08BCEF
S315080029009E467047F8B500BFF8BC08BC9E4670479F
S3150800291000000000A1230008000000001D070008B1
S315080029200D0A4765636B6F20426F6F746C6F616445
S3150800293065722076582E59592E5A5A0D0A312E206C
S3150800294075706C6F61642067626C0D0A322E207296
S31508002950756E0D0A332E2065626C20696E666F0DE2
S315080029600A424C203E20000205000D0A4661696CA9
S31508002970656420746F20626F6F740D0A000D0A6615
S31508002980696C65206572726F72203078000D0A5383
S31508002990657269616C2075706C6F61642061626F25
S315080029A0727465640D0A000D0A53657269616C20BC
S315080029B075706C6F616420636F6D706C6574650DFE
S315080029C00A000D0A626567696E2075706C6F61642E
S315080029D00D0A000D0A626C6F636B206572726F7266
S315080029E020307800B814B6F1E0CFF3ADB7DD25C9CD
S315080029F0FA79B7130000000007B0CD5E02000000A8
S31508002A0000000302042C00000060000800001808FB
S31508002A10F00410002524000829240008C907000826
S31508002A203524000865240008000000009F240008DB
S31508002A301525000800000000310A0008290A0008C8
S31508002A4013B779FAC925DDB7ADF3CFE0F1B614B8F7
S31508002A500102000000000000002C000040000000F9
S31508002A600000030200000000000000000000000053
S31508002A700000000000000000000000000000000048
S31508002A800000000000000000000000000000000038
S31508002A900400000700000D1013001A2026303840E5
S31508002AA050000000EB17A603020100000300000017
S31508002AB0FA0606FA0F04000003000000F40A0AF4F6
S31508002AC00505000001000000EB17A65E0A060000D7
S31508002AD001000000F50909F50307000001000000E0
S31508002AE0F60808F60608000000000000FE0101FED0
S31508002AF00808000000000000FD0303FD0C080000A4
S31508002B0000000000F90707F910090000020000009C
S31508002B10F30B0BF3110A000003000000F70A0AF78B
S31508002B20120B000003000000FC0404FC0D0C00005E
S31508002B30030000006A09E667BB67AE853C6EF37260
S31508002B40A54FF53A510E527F9B05688C1F83D9AB6A
S31508002B505BE0CD19800000000000000000000000C6
S31508002B600000000000000000000000000000000057
S31508002B700000000000000000000000000000000047
S31508002B800000000000000000000000000000000037
S30908002B900000000033
S31108002B94A02B00081010002018000000FC
S31508002BA0F00F100300000000C510002013000000FD
S31508002BB009000000000100000202000013000000E6
S31508002BC0F00F100300000000C511002013000000DC
S31508002BD0090000000002000001010000D3FFFFFF0A
S31508002BE0F07F1030C5120020000000000000000031
S31508002BF000C0054029000000950100087101000881
S705080001FDF4
